:1005280053636F7265203A00000047616D65204F84
:040538007665722151
:03000B00020003ED
:03000300B297327F
:1001B100E4F50AF50BF50CF50DF50EF50FF510F557
:1001C10011F512F51312056212000012050E8F13BC
:1001D100E513640160030202B1E4FDFF1203957DA2
:1001E10001E4FF1203957D02E4FF120395E4FDFF94
:1001F100120326EF700AF508750914750B018026A4
:100201007D01E4FF120326EF700AF50875092875D0
:100211000B0180127D02E4FF120326EF7008F5083E
:1002210075093C750B01E50B60C3E4FDFF1203DCAE
:100231007D01E4FF1203DC7D02E4FF1203DC120402
:10024100A67C007D031201268D0D1204A67C007D83
:10025100031201268D0EAF0D120395AB0EAD0DAF3E
:1002610009AE081204238F10E510600C050FAF0FC3
:100271001202B212053C8018051212054F12054FE9
:1002810012054FAF12120006E512B40303750C01FB
:10029100AD0EAF0D1203DC1204ED1204EDE50C609E
:1002A1009D120465E4F50BF512F50FF50C0201DA68
:0102B100222A
:10039500EF14601B14602C2402703BED14600A14EA
:1003A500600A24027030C2A422C28522C2A722EDAF
:1003B50014600A14600A2402701CC28622C29622A6
:1003C500C28422ED14600A14600A24027008C2A5D2
:0703D50022C28722C2A6220A
:1003DC00EF14601B14602C2402703BED14600A14A3
:1003EC00600A24027030D2A422D28522D2A722ED38
:1003FC0014600A14600A2402701CD28622D296223F
:10040C00D28422ED14600A14600A24027008D2A56A
:07041C0022D28722D2A622A2
:10032600EF14602714604424027063EC7060ED14CF
:10033600600D14601024027055A2A0E433FF22A2BF
:1003460081E433FF22A2A3E433FF22EC7040ED14D4
:10035600600D14601024027035A282E433FF22A2DD
:1003660094E433FF22A280E433FF22AE04AF05EC0F
:10037600701CEF14600D14601024027011A2A1E429
:0F03860033FF22A283E433FF22A2A2E433FF223B
:080423008E148F158D16A9033C
:10042B00758901E4FBFAC3EB9515EA95145028E4A2
:10043B00F58CF58AD28C208D13E9FD7C00AF16125A
:10044B000326EF70F1C28CC28D7F0122C28DC28C4C
:09045B000BBB00010A80CF7F00F9
:010464002275
:10056200E4F584F585F591F592F5A4F5A5F5B122AA
:0604E700D2AFD2A9D28CB5
:1004ED00E4FFFE758910758DF0E4F58BD28E308F9B
:1004FD00FDC28EC28F0FBF00010EEF64284E70E655
:01050D0022CB
:10053C00758901758CEB758A421204E7C28CC28DE9
:03054C00C2A9221F
:10054F00758901758CFF758AFF1204E7C28CC28D05
:03055F00C2A9220C
:0202B2008F14A7
:1002B400E4F515F51678177C00FD7BFF7A0579289F
:1002C400FE7F0A1200DEE51475F00A120104FFC471
:1002D40054F0FFE51475F00A120104AEF0EE4FF588
:1002E4001674172515F8E6FF60071200000515803F
:1002F400F0E4F515E51654F0FF3395E0FEEF7804CD
:10030400CEA2E713CE13D8F82430FF120000E5166E
:10031400540F2430FF1200007F0D1200007F0A02E8
:020324000000D7
:030006008F142232
:10046500E4F51478157C00FD7BFF7A057932FE7F73
:100475000A1200DEE4F51474152514F8E6FF1200DF
:10048500000514E514C3940A40EDE4F5147F0D123C
:1004950000007F0A1200000514E514C3940540ED21
:0104A5002234
:10050E00E4FBEBC39403500F7D017C007F011203CB
:09051E0026EF70EE0B80EB7F016B
:0105270022B1
:0300000002057284
:0C057200787FE4F6D8FD7581240201B109
:10000E00E709F608DFFA8046E709F208DFFA803ED4
:10001E0088828C83E709F0A3DFFA8032E309F608C1
:10002E00DFFA8078E309F208DFFA807088828C8329
:10003E00E309F0A3DFFA806489828A83E0A3F608DD
:10004E00DFFA805889828A83E0A3F208DFFA804CB7
:10005E0080D280FA80C680D4806980F2803380108E
:10006E0080A680EA809A80A880DA80E280CA8033F7
:10007E0089828A83ECFAE493A3C8C582C8CCC5836F
:10008E00CCF0A3C8C582C8CCC583CCDFE9DEE7803F
:10009E000D89828A83E493A3F608DFF9ECFAA9F0BE
:1000AE00EDFB2289828A83ECFAE0A3C8C582C8CC14
:1000BE00C583CCF0A3C8C582C8CCC583CCDFEADE2D
:1000CE00E880DB89828A83E493A3F208DFF980CC8F
:1000DE0088F0EF60010E4E60C388F0ED2402B40488
:1000EE000050B9F582EB2402B4040050AF2323452F
:0600FE00822390005E73F6
:10010400C2D530F707B2D563F0FF05F030E70CB283
:10011400D5F4048463F0FF05F080018430D502F443
:020124000422B3
:10012600C2D5EC30E709B2D5E4C39DFDE49CFCEEF4
:1001360030E715B2D5E4C39FFFE49EFE12015CC30F
:10014600E49DFDE49CFC800312015C30D507C3E40A
:060156009FFFE49EFE2263
:1004A600AC21AD22AE23AF24780FEFA2E2EC20E61A
:1004B60001B35D5E5FF47004FCFDFEFFEF13FFEE1B
:1004C60013FEED13FDEC13FCD8E08C218D228E2358
:1004D6008F24EE547FFE228E218F22E4F523F5240D
:0104E60022F3
:10015C00BC000BBE0029EF8DF084FFADF022E4CC87
:10016C00F875F008EF2FFFEE33FEEC33FCEE9DEC50
:10017C00984005FCEE9DFE0FD5F0E9E4CEFD22ED96
:10018C00F8F5F0EE8420D21CFEADF075F008EF2FE0
:10019C00FFED33FD4007985006D5F0F222C398FDD1
:0501AC000FD5F0EA226E
:00000001FF
