:10000300E4F50AF50BF50CF50DF50EF50FF510F506
:100013001112031DE4FDFF1201D87D01E4FF12015B
:10002300D87D02E4FF1201D8E4FDFF120169EF70ED
:100033000AF508750914750B0180267D01E4FF128A
:100043000169EF700AF508750928750B0180127DA7
:1000530002E4FF120169EF7008F50875093C750B9E
:1000630001E50B60C3E4FDFF12021F7D01E4FF12F3
:10007300021F7D02E4FF12021F1202A87C007D030F
:100083001200DE8D0D1202A87C007D031200DE8DAE
:100093000EAF0D1201D8AB0EAD0DAF09AE081202B3
:1000A300668F10E510600B050F7D027F021201D8E9
:1000B30080077D017F021201D8AD0EAF0D12021F22
:1000C3001202E97D027F0212021F7D017F021202EA
:0B00D3001F1202E9E50C60A102002BE7
:1001D800EF14601B14602C2402703BED14600A14A9
:1001E800600A24027030C2A422C28522C2A722ED6E
:1001F80014600A14600A2402701CC28622C2962265
:10020800C28422ED14600A14600A24027008C2A590
:0702180022C28722C2A622C8
:10021F00EF14601B14602C2402703BED14600A1461
:10022F00600A24027030D2A422D28522D2A722EDF6
:10023F0014600A14600A2402701CD28622D29622FD
:10024F00D28422ED14600A14600A24027008D2A529
:07025F0022D28722D2A62261
:10016900EF14602714604424027063EC7060ED148E
:10017900600D14601024027055A2A0E433FF22A27E
:1001890081E433FF22A2A3E433FF22EC7040ED1493
:10019900600D14601024027035A282E433FF22A29C
:1001A90094E433FF22A280E433FF22AE04AF05ECCE
:1001B900701CEF14600D14601024027011A2A1E4E8
:0F01C90033FF22A283E433FF22A2A2E433FF22FA
:080266008E128F138D14A90301
:10026E00758901E4FBFAC3EB9513EA95125028E465
:10027E00F58CF58AD28C208D13E9FD7C00AF14121B
:10028E000169EF70F1C28CC28D7F0122C28DC28CCA
:09029E000BBB00010A80CF7F00B8
:0102A7002234
:0E031D00E4F584F585F591F592F5A4F5A52299
:100309001200007D01E4FF1201D80DE41201D80D9D
:04031900E40201D821
:1002E900E4FFFE758910E4F58DF58BD28E308FFD14
:0F02F900C28EC28F0FBF00010EEF64284E70E758
:0103080022D2
:0300000002032BCD
:0C032B00787FE4F6D8FD7581180200030D
:1000DE00C2D5EC30E709B2D5E4C39DFDE49CFCEE3D
:1000EE0030E715B2D5E4C39FFFE49EFE120114C3A0
:1000FE00E49DFDE49CFC800312011430D507C3E49B
:06010E009FFFE49EFE22AB
:1002A800AC15AD16AE17AF18780FEFA2E2EC20E64A
:1002B80001B35D5E5FF47004FCFDFEFFEF13FFEE1B
:1002C80013FEED13FDEC13FCD8E08C158D168E177C
:1002D8008F18EE547FFE228E158F16E4F517F51849
:0102E80022F3
:10011400BC000BBE0029EF8DF084FFADF022E4CCCF
:10012400F875F008EF2FFFEE33FEEC33FCEE9DEC98
:10013400984005FCEE9DFE0FD5F0E9E4CEFD22EDDE
:10014400F8F5F0EE8420D21CFEADF075F008EF2F28
:10015400FFED33FD4007985006D5F0F222C398FD19
:050164000FD5F0EA22B6
:00000001FF
