:10007200E4F50AF50B1201A7120000E4FDFF1200DD
:10008200C87D01E4FF1200C87D02E4FF1200C8E44B
:10009200FDFF120003BF01087508037509208022C5
:1000A2007D01E4FF120003EF600875080675094040
:1000B20080107D02E4FF120003EF600675080775E9
:0600C20009D0E50B80B23D
:1000C800EF14601B14602C2402703BED14600A14BA
:1000D800600A24027030C2A422C28522C2A722ED7F
:1000E80014600A14600A2402701CC28622C2962276
:1000F800C28422ED14600A14600A24027008C2A5A2
:0701080022C28722C2A622D9
:10010F00EF14601B14602C2402703BED14600A1472
:10011F00600A24027030D2A422D28522D2A722ED07
:10012F0014600A14600A2402701CD28622D296220E
:10013F00D28422ED14600A14600A24027008D2A53A
:07014F0022D28722D2A62272
:10000300EF14602714604424027063EC7060ED14F5
:10001300600D14601024027055A2A0E433FF22A2E5
:1000230081E433FF22A2A3E433FF22EC7040ED14FA
:10003300600D14601024027035A282E433FF22A203
:1000430094E433FF22A280E433FF22AE04AF05EC35
:10005300701CEF14600D14601024027011A2A1E44F
:0F00630033FF22A283E433FF22A2A2E433FF2261
:080156008E0C8F0D8D0EA90324
:10015E00758901E4F58CF58AD28CFBFAC3EB950D0B
:10016E00EA950C501D208D13E9FD7C00AF0E120098
:10017E0003EF70F1C28CC28D7F01220BBB00010A0E
:04018E0080DA7F0094
:01019200224A
:0E01A700E4F584F585F591F592F5A4F5A52211
:100193001200007D01E4FF1200C80DE41200C80D37
:0401A300E40200C8AA
:030000000201B545
:0C01B500787FE4F6D8FD75810E02007220
:00000001FF
