:10000E0053636F7265203A00000047616D65204FA3
:04001E007665722170
:03000B0002058F5C
:03058F00B29732EE
:1001C900E4F50AF50BF50CF50DF50EF50FF510F53F
:1001D90011F5121205681204EEE4FDFF12039C7D6D
:1001E90001E4FF12039C7D02E4FF12039CE4FDFF7E
:1001F90012032DEF700AF508750914750B01802695
:100209007D01E4FF12032DEF700AF50875092875C1
:100219000B0180127D02E4FF12032DEF7008F5082F
:1002290075093C750B01E50B60C3E4FDFF1203E39F
:100239007D01E4FF1203E37D02E4FF1203E31204EC
:10024900AD7C007D0312013E8D0D1204AD7C007D55
:100259000312013E8D0EAF0D12039CAB0EAD0DAF17
:1002690009AE0812042A8F10E510600C050FAF0FB4
:100279001202B912054280180512120555120555C8
:10028900120555AF12120592E512B40303750C015C
:10029900AD0EAF0D1203E3120521120521E50C6025
:1002A9009D12046CE4F50BF512F50FF50C0201E251
:10039C00EF14601B14602C2402703BED14600A14E3
:1003AC00600A24027030C2A422C28522C2A722EDA8
:1003BC0014600A14600A2402701CC28622C296229F
:1003CC00C28422ED14600A14600A24027008C2A5CB
:0703DC0022C28722C2A62203
:1003E300EF14601B14602C2402703BED14600A149C
:1003F300600A24027030D2A422D28522D2A722ED31
:1004030014600A14600A2402701CD28622D2962237
:10041300D28422ED14600A14600A24027008D2A563
:0704230022D28722D2A6229B
:10032D00EF14602714604424027063EC7060ED14C8
:10033D00600D14601024027055A2A0E433FF22A2B8
:10034D0081E433FF22A2A3E433FF22EC7040ED14CD
:10035D00600D14601024027035A282E433FF22A2D6
:10036D0094E433FF22A280E433FF22AE04AF05EC08
:10037D00701CEF14600D14601024027011A2A1E422
:0F038D0033FF22A283E433FF22A2A2E433FF2234
:08042A008E138F148D15A90338
:10043200758901E4FBFAC3EB9514EA95135028E49D
:10044200F58CF58AD28C208D13E9FD7C00AF151254
:10045200032DEF70F1C28CC28D7F0122C28DC28C3E
:090462000BBB00010A80CF7F00F2
:01046B00226E
:0E056800E4F584F585F591F592F5A4F5A5224C
:06051B00D2AFD2A9D28C80
:10052100E4FFFE758910758DF0E4F58BD28E308F66
:10053100FDC28EC28F0FBF00010EEF64284E70E620
:010541002297
:10054200758901758CEB758A4212051BC28CC28DAE
:03055200C2A92219
:10055500758901758CFF758AFF12051BC28CC28DCA
:03056500C2A92206
:0202B9008F13A1
:1002BB00E4F514F51578167C00FD7BFF7A00790EBA
:1002CB00FE7F0A1200F6E51375F00A12011CFFC43B
:1002DB0054F0FFE51375F00A12011CAEF0EE4FF56A
:1002EB001574162514F8E6FF600712000305148039
:1002FB00F0E4F514E51554F0FF3395E0FEEF7804C8
:10030B00CEA2E713CE13D8F82430FF120003E51565
:10031B00540F2430FF1200037F0D1200037F0A02DB
:02032B000003CD
:030592008F1322A2
:10046C00E4F51378147C00FD7BFF7A007918FE7F8D
:10047C000A1200F6E4F51374142513F8E6FF1200C3
:10048C00030513E513C3940A40EDE4F5137F0D1235
:10049C0000037F0A1200030513E513C3940540ED16
:0104AC00222D
:1004EE005387BF75985053877FE4F5BA43A240F502
:1004FE00BD75BEF075BF0275BD0375910275920193
:0D050E00C20075B80175B701D2ACD2AF22A2
:030023000205765D
:0D057600309802C298309904C299C2003238
:080003002000FDD2008F9922BC
:03059500AF9922F9
:0300000002058373
:0C058300787FE4F6D8FD7581240201C9E0
:10002600E709F608DFFA8046E709F208DFFA803EBC
:1000360088828C83E709F0A3DFFA8032E309F608A9
:10004600DFFA8078E309F208DFFA807088828C8311
:10005600E309F0A3DFFA806489828A83E0A3F608C5
:10006600DFFA805889828A83E0A3F208DFFA804C9F
:1000760080D280FA80C680D4806980F28033801076
:1000860080A680EA809A80A880DA80E280CA8033DF
:1000960089828A83ECFAE493A3C8C582C8CCC58357
:1000A600CCF0A3C8C582C8CCC583CCDFE9DEE78027
:1000B6000D89828A83E493A3F608DFF9ECFAA9F0A6
:1000C600EDFB2289828A83ECFAE0A3C8C582C8CCFC
:1000D600C583CCF0A3C8C582C8CCC583CCDFEADE15
:1000E600E880DB89828A83E493A3F208DFF980CC77
:1000F60088F0EF60010E4E60C388F0ED2402B40470
:100106000050B9F582EB2402B4040050AF23234516
:06011600822390007673C5
:10011C00C2D530F707B2D563F0FF05F030E70CB26B
:10012C00D5F4048463F0FF05F080018430D502F42B
:02013C0004229B
:10013E00C2D5EC30E709B2D5E4C39DFDE49CFCEEDC
:10014E0030E715B2D5E4C39FFFE49EFE120174C3DF
:10015E00E49DFDE49CFC800312017430D507C3E4DA
:06016E009FFFE49EFE224B
:1004AD00AC21AD22AE23AF24780FEFA2E2EC20E613
:1004BD0001B35D5E5FF47004FCFDFEFFEF13FFEE14
:1004CD0013FEED13FDEC13FCD8E08C218D228E2351
:1004DD008F24EE547FFE228E218F22E4F523F52406
:0104ED0022EC
:10017400BC000BBE0029EF8DF084FFADF022E4CC6F
:10018400F875F008EF2FFFEE33FEEC33FCEE9DEC38
:10019400984005FCEE9DFE0FD5F0E9E4CEFD22ED7E
:1001A400F8F5F0EE8420D21CFEADF075F008EF2FC8
:1001B400FFED33FD4007985006D5F0F222C398FDB9
:0501C4000FD5F0EA2256
:00000001FF
