:1003CF0014283C53636F7265203A00000047616D3B
:1003DF0065204F7665722157656C636F6D6520746C
:1003EF006F20576861636B2D612D6D6F6C652120D8
:1003FF002D2D2072656420666F7220686172642CE7
:10040F002079656C6C6F7720666F72206D656469FB
:10041F00756D2C20677265656E20666F7220656141
:02042F007379DF
:03000B00020747A2
:03074700B2973234
:1001C900E4F523F524F525F526F527F528F529F590
:1001D9002AF52B1207061206201207421204318F44
:1001E9002AE52A640160030202EB12059EE4FDFF81
:1001F90012048D7D01E4FF12048D7D02E4FF1204D7
:100209008DE4FDFF120360EF700E9003CF9375210B
:1002190000F522752301802E7D01E4FF120360EFB2
:10022900700E9003D093752100F522752301801675
:100239007D02E4FF120360EF700C9003D1937521E6
:1002490000F522752301E52360B7E4FDFF1204D40C
:100259007D01E4FF1204D47D02E4FF1204D4052BCE
:100269001205DF8F2B7E001206161205DF7C007D3A
:100279000312013E8D251205DF7C007D0312013E2C
:100289008D26AF2512048DAB26AD25AF22AE2112E6
:10029900051B8F28E528600C0527AF271202EC12F1
:1002A900000E801805291206BA1206BA1206BAAF4C
:1002B90029120718E529B40303752401AD26AF25D2
:1002C9001204D412067D12067DE524609112055DA3
:1002D90012064D120742E4F523F529F527F5240204
:0202E90001F31F
:0102EB0022F0
:10048D00EF14601B14602C2402703BED14600A14F1
:10049D00600A24027030C2A422C28522C2A722EDB6
:1004AD0014600A14600A2402701CC28622C29622AD
:1004BD00C28422ED14600A14600A24027008C2A5D9
:0704CD0022C28722C2A62211
:1004D400EF14601B14602C2402703BED14600A14AA
:1004E400600A24027030D2A422D28522D2A722ED3F
:1004F40014600A14600A2402701CD28622D2962246
:10050400D28422ED14600A14600A24027008D2A571
:0705140022D28722D2A622A9
:10036000EF14602714604424027063EC7060ED1495
:10037000600D14601024027055A2A0E433FF22A285
:1003800081E433FF22A2A3E433FF22EC7040ED149A
:10039000600D14601024027035A282E433FF22A2A3
:1003A00094E433FF22A280E433FF22AE04AF05ECD5
:1003B000701CEF14600D14601024027011A2A1E4EF
:0F03C00033FF22A283E433FF22A2A2E433FF2201
:08051B008E2C8F2D8D2EA903FB
:10052300758901E4FBFAC3EB952DEA952C5028E479
:10053300F58CF58AD28C208D13E9FD7C00AF2E1249
:100543000360EF70F1C28CC28D7F0122C28DC28C19
:090553000BBB00010A80CF7F0000
:01055C00227C
:10070600E4F584F585F591F592F5A4F5A5F5B1F531
:02071600B2220D
:06067700D2AFD2A9D28C23
:10067D00E4FFFE758910758DF0E4F58BD28E308F09
:10068D00FDC28EC28F0FBF00010EEF64284E70E6C3
:01069D00223A
:10000E00758901758CEB758A42120677C28CC28D8A
:03001E00C2A92252
:1006BA00758901758CFF758AFF120677C28CC28D07
:0306CA00C2A922A0
:1006CD00758901758C0F758A8D120677C28CC28D56
:0306DD00C2A9228D
:1006E000758901758C10758A68120677C28CC28D67
:0306F000C2A9227A
:1006F300758901758C11758A47120677C28CC28D74
:03070300C2A92266
:09069E0012067D1206A712067D6A
:1006A700758901758C12758A5C120677C28CC28DAA
:0306B700C2A922B3
:10064D001206CD12067D1206CD12067D1206E0129F
:10065D00067D1206E012067D1206F312067D1206C5
:0A066D00F312069E12069E02067D9F
:0202EC008F2C55
:1002EE00E4F52DF52E782F7C00FD7BFF7A0379D275
:1002FE00FE7F0A1200F6E52C75F00A12011CFFC4EF
:10030E0054F0FFE52C75F00A12011CAEF0EE4FF51D
:10031E002E742F252DF8E6FF6007120003052D80A1
:10032E00F0E4F52DE52E54F0FF3395E0FEEF780462
:10033E00CEA2E713CE13D8F82430FF120003E52E19
:10034E00540F2430FF1200037F0D1200037F0A02A8
:02035E0000039A
:10071800EF24FE6007047006B2B08002B2B1020690
:010728007D53
:05074200B2B0B2B122CB
:10055D00E4F52C782D7C00FD7BFF7A0379DCFE7FA2
:10056D000A1200F6E4F52C742D252CF8E6FF120086
:10057D0003052CE52CC3940A40EDE4F52C7F0D12F8
:10058D0000037F0A120003052CE52CC3940540EDF2
:01059D00223B
:10043100E4F52FF52DF52CF52EE52EC39403504947
:10044100052F1205DF8F2F7E001206161205DF7CA5
:10045100007D0312013E8D2C1205DF7C007D03120D
:10046100013E8D2DAF2C12048D7D017C007F011288
:100471000360EF7002052E12067D12067D12067DC5
:0B048100AD2DAF2C1204D480B07F0121
:01048C00224D
:10059E00E4F52C782D7C00FD7BFF7A0379E6FE7F57
:1005AE004B1200F6E4F52C742D252CF8E6FF120004
:1005BE0003052CE52CC3944B40EDE4F52C7F0D1276
:1005CE0000037F0A120003052CE52CC3940340EDB3
:0105DE0022FA
:100620005387BF75985053877FE4F5BA43A240F5CE
:10063000BD75BEF075BF0275BD037591027592015F
:0D064000C20075B80175B701D2ACD2AF226F
:03002300020729A8
:0D072900309802C298309904C299C2003283
:080003002000FDD2008F9922BC
:03074A00AF992242
:03000000020736BE
:0C073600787FE4F6D8FD7581770201C9D8
:10002600E709F608DFFA8046E709F208DFFA803EBC
:1000360088828C83E709F0A3DFFA8032E309F608A9
:10004600DFFA8078E309F208DFFA807088828C8311
:10005600E309F0A3DFFA806489828A83E0A3F608C5
:10006600DFFA805889828A83E0A3F208DFFA804C9F
:1000760080D280FA80C680D4806980F28033801076
:1000860080A680EA809A80A880DA80E280CA8033DF
:1000960089828A83ECFAE493A3C8C582C8CCC58357
:1000A600CCF0A3C8C582C8CCC583CCDFE9DEE78027
:1000B6000D89828A83E493A3F608DFF9ECFAA9F0A6
:1000C600EDFB2289828A83ECFAE0A3C8C582C8CCFC
:1000D600C583CCF0A3C8C582C8CCC583CCDFEADE15
:1000E600E880DB89828A83E493A3F208DFF980CC77
:1000F60088F0EF60010E4E60C388F0ED2402B40470
:100106000050B9F582EB2402B4040050AF23234516
:06011600822390007673C5
:10011C00C2D530F707B2D563F0FF05F030E70CB26B
:10012C00D5F4048463F0FF05F080018430D502F42B
:02013C0004229B
:10013E00C2D5EC30E709B2D5E4C39DFDE49CFCEEDC
:10014E0030E715B2D5E4C39FFFE49EFE120174C3DF
:10015E00E49DFDE49CFC800312017430D507C3E4DA
:06016E009FFFE49EFE224B
:1005DF00AC08AD09AE0AAF0B780FEFA2E2EC20E644
:1005EF0001B35D5E5FF47004FCFDFEFFEF13FFEEE1
:1005FF0013FEED13FDEC13FCD8E08C088D098E0A69
:10060F008F0BEE547FFE228E088F09E4F50AF50B4F
:01061F0022B8
:10017400BC000BBE0029EF8DF084FFADF022E4CC6F
:10018400F875F008EF2FFFEE33FEEC33FCEE9DEC38
:10019400984005FCEE9DFE0FD5F0E9E4CEFD22ED7E
:1001A400F8F5F0EE8420D21CFEADF075F008EF2FC8
:1001B400FFED33FD4007985006D5F0F222C398FDB9
:0501C4000FD5F0EA2256
:00000001FF
