:0A04B90053636F7265203A000000E3
:03000B000204C329
:0304C300B29732BB
:1001A700E4F50AF50BF50CF50DF50EF50FF510F561
:1001B70011120492E4FDFF1202E97D01E4FF12022D
:1001C700E97D02E4FF1202E9120429E4FDFF1202AD
:1001D7007AEF700AF508750914750B0180267D0101
:1001E700E4FF12027AEF700AF508750928750B010A
:1001F70080127D02E4FF12027AEF7008F508750994
:100207003C750B01E50B60C3E4FDFF1203307D0174
:10021700E4FF1203307D02E4FF1203301203B97CBE
:10022700007D0312011C8D0D1203B97C007D0312A2
:10023700011C8D0EAF0D1202E9AB0EAD0DAF09AE6D
:10024700081203778F10E510600CAF0F1203FA1234
:10025700000E050F800912047D12047D12047DAD86
:100267000EAF0D12033012045C12045CE50C60AC97
:030277000201D2AF
:1002E900EF14601B14602C2402703BED14600A1497
:1002F900600A24027030C2A422C28522C2A722ED5C
:1003090014600A14600A2402701CC28622C2962252
:10031900C28422ED14600A14600A24027008C2A57E
:0703290022C28722C2A622B6
:10033000EF14601B14602C2402703BED14600A144F
:10034000600A24027030D2A422D28522D2A722EDE4
:1003500014600A14600A2402701CD28622D29622EB
:10036000D28422ED14600A14600A24027008D2A517
:0703700022D28722D2A6224F
:10027A00EF14602714604424027063EC7060ED147C
:10028A00600D14601024027055A2A0E433FF22A26C
:10029A0081E433FF22A2A3E433FF22EC7040ED1481
:1002AA00600D14601024027035A282E433FF22A28A
:1002BA0094E433FF22A280E433FF22AE04AF05ECBC
:1002CA00701CEF14600D14601024027011A2A1E4D6
:0F02DA0033FF22A283E433FF22A2A2E433FF22E8
:080377008E128F138D14A903EF
:10037F00758901E4FBFAC3EB9513EA95125028E453
:10038F00F58CF58AD28C208D13E9FD7C00AF141209
:10039F00027AEF70F1C28CC28D7F0122C28DC28CA6
:0903AF000BBB00010A80CF7F00A6
:0103B8002222
:0E049200E4F584F585F591F592F5A4F5A52223
:06045600D2AFD2A9D28C46
:10045C00E4FFFE758910758DF0E4F58BD28E308F2C
:10046C00FDC28EC28F0FBF00010EEF64284E70E6E6
:01047C00225D
:10000E00758901758CEB758A42120456C28CC28DAD
:05001E00C2AFC2A922DF
:10047D00758901758CFF758AFF120456C28CC28D69
:05048D00C2AFC2A9226C
:0203FA008F1260
:1003FC00E4F513F51478157C00FD7BFF7A0479B9CC
:10040C00FE7F0A1200F6E4F513E5122430F514FF12
:0D041C001200037F0D1200037F0A0200038F
:100429005387BF75985053877FE4F5BA43A240F5C7
:10043900BD75BEF075BF0275BD0375910275920158
:0D044900C20075B80175B701D2ACD2AF2268
:030023000204A034
:0D04A000309802C298309904C299C200320F
:080003002000FDD2008F9922BC
:0304C600AF9922C9
:030000000204AD4A
:0C04AD00787FE4F6D8FD7581240201A7D9
:10002600E709F608DFFA8046E709F208DFFA803EBC
:1000360088828C83E709F0A3DFFA8032E309F608A9
:10004600DFFA8078E309F208DFFA807088828C8311
:10005600E309F0A3DFFA806489828A83E0A3F608C5
:10006600DFFA805889828A83E0A3F208DFFA804C9F
:1000760080D280FA80C680D4806980F28033801076
:1000860080A680EA809A80A880DA80E280CA8033DF
:1000960089828A83ECFAE493A3C8C582C8CCC58357
:1000A600CCF0A3C8C582C8CCC583CCDFE9DEE78027
:1000B6000D89828A83E493A3F608DFF9ECFAA9F0A6
:1000C600EDFB2289828A83ECFAE0A3C8C582C8CCFC
:1000D600C583CCF0A3C8C582C8CCC583CCDFEADE15
:1000E600E880DB89828A83E493A3F208DFF980CC77
:1000F60088F0EF60010E4E60C388F0ED2402B40470
:100106000050B9F582EB2402B4040050AF23234516
:06011600822390007673C5
:10011C00C2D5EC30E709B2D5E4C39DFDE49CFCEEFE
:10012C0030E715B2D5E4C39FFFE49EFE120152C323
:10013C00E49DFDE49CFC800312015230D507C3E41E
:06014C009FFFE49EFE226D
:1003B900AC21AD22AE23AF24780FEFA2E2EC20E608
:1003C90001B35D5E5FF47004FCFDFEFFEF13FFEE09
:1003D90013FEED13FDEC13FCD8E08C218D228E2346
:1003E9008F24EE547FFE228E218F22E4F523F524FB
:0103F90022E1
:10015200BC000BBE0029EF8DF084FFADF022E4CC91
:10016200F875F008EF2FFFEE33FEEC33FCEE9DEC5A
:10017200984005FCEE9DFE0FD5F0E9E4CEFD22EDA0
:10018200F8F5F0EE8420D21CFEADF075F008EF2FEA
:10019200FFED33FD4007985006D5F0F222C398FDDB
:0501A2000FD5F0EA2278
:00000001FF
